:1000000012C02CC02BC02AC029C028C027C026C0BF
:1000100025C024C023C022C021C020C01FC01EC0D4
:100020001DC01CC01BC011241FBECFE5D4E0DEBF25
:10003000CDBF13E0A0E6B0E0E0E0F2E002C0059042
:100040000D92AA38B107D9F713E0AAE8B3E001C0CE
:100050001D92A439B107E1F702D0D0C0D1CF0F93E0
:100060001F93CF93DF9327D06FD0BFD080E060E0A5
:1000700040E650E092D004ED10E3C9E1D0E0989959
:10008000FECFC8010197F1F780918C0360E040E654
:1000900050E083D080918C0390918D0301969093D2
:1000A0008D0380938C0380E197E2FE013197F1F795
:1000B0000197D9F7E4CFA198A298A398A098A99AFC
:1000C000AA9AAB9AA89A089592B3282F207F9F707E
:1000D000292B22BB9098919A26E0922F9A95F1F7BE
:1000E0009198E8EEF3E03197F1F792B38295807F33
:1000F0009F70982B92BB919A2A95F1F7919880E185
:1001000097E20197F1F7089592B3282F207F9F700F
:10011000292B22BB909A919A26E0922F9A95F1F77B
:100120009198E8EEF3E03197F1F792B38295807FF2
:100130009F70982B92BB919A2A95F1F7919880E144
:1001400097E20197F1F708958FEF81BB80EA9FE076
:1001500029E130E0F9013197F1F70197D9F783E30D
:10016000B3DF82E3B1DF88E2AFDF8CE0ADDF86E0B2
:10017000ABDF81E0A9DF80E197E20197F1F780E84A
:10018000A3DF0895CF93DF93EC0101C0BDDF899118
:100190008823E1F7DF91CF910895CF93DF93EA01B0
:1001A000882331F46031E4F46F70862F806817C0C3
:1001B000813031F46031A4F46F70862F806C0FC0F1
:1001C000823031F4603164F46B70862F846907C02B
:1001D000833031F4603124F46B70862F846D74DFCA
:1001E000CE01D0DFDF91CF91089581E06DDF80E116
:1001F00097E20197F1F780E867DF0895F894FFCF61
:100200003E0056616C75655F310000000000000023
:1002100000000000000000000000000000000000DE
:1002200000000000000000000000000000000000CE
:1002300000000000000000000000000000000000BE
:1002400000000000000000000000000000000000AE
:10025000000000000000000000000000000000009E
:10026000000000000000556E69745F31000000005E
:10027000000000000000000000000000000000007E
:10028000000000000000000000000000000000006E
:10029000000000000000000000000000000000005E
:1002A000000000000000000000000000000000004E
:1002B000000000000000000000000000000000003E
:1002C0000000000000000000000056616C75655FD2
:1002D00032000000000000000000000000000000EC
:1002E000000000000000000000000000000000000E
:1002F00000000000000000000000000000000000FE
:1003000000000000000000000000000000000000ED
:1003100000000000000000000000000000000000DD
:100320000000000000000000000000000000556E0A
:1003300069745F320000000000000000000000004F
:1003400000000000000000000000000000000000AD
:10035000000000000000000000000000000000009D
:10036000000000000000000000000000000000008D
:10037000000000000000000000000000000000007D
:10038000000000000000000000000000000000006D
:10039000000056616C75655F3300000000000000CE
:1003A000000000000000000000000000000000004D
:1003B000000000000000000000000000000000003D
:1003C000000000000000000000000000000000002D
:1003D000000000000000000000000000000000001D
:1003E000000000000000000000000000000000000D
:1003F000000000000000556E69745F3300000000CB
:1004000000000000000000000000000000000000EC
:1004100000000000000000000000000000000000DC
:1004200000000000000000000000000000000000CC
:1004300000000000000000000000000000000000BC
:1004400000000000000000000000000000000000AC
:100450000000000000000000000056616C75655F40
:100460003400000000000000000000000000000058
:10047000000000000000000000000000000000007C
:10048000000000000000000000000000000000006C
:10049000000000000000000000000000000000005C
:1004A000000000000000000000000000000000004C
:1004B0000000000000000000000000000000556E79
:1004C00069745F34000000000000000000000000BC
:1004D000000000000000000000000000000000001C
:1004E000000000000000000000000000000000000C
:1004F00000000000000000000000000000000000FC
:1005000000000000000000000000000000000000EB
:1005100000000000000000000000000000000000DB
:0A052000000000000A003200640031
:00000001FF
