:1000000012C02CC02BC02AC029C028C027C026C0BF
:1000100025C024C023C022C021C020C01FC01EC0D4
:100020001DC01CC01BC011241FBECFE5D4E0DEBF25
:10003000CDBF10E0A0E6B0E0EEE1F2E002C0059036
:100040000D92AA36B107D9F710E0AAE6B0E001C0D8
:100050001D92A637B107E1F702D0DFC0D1CFCF9311
:10006000DF9330D080E031D080E895E23CD0C9E128
:10007000D0E032D09C01220F331F220F331F820F9A
:10008000931F6FEF73E064D0CB0160936A0090938D
:100090006B006CE670E04AE050E090D080E690E0C3
:1000A0004DD08CE690E04AD086E540D08AE03ED044
:1000B0008DE03CD08FEF9FEFFE013197F1F7019774
:1000C000D9F7D7CF889A8A9A08953E9A97B1982BF4
:1000D00097B987E886B90895369A349BFECF24B144
:1000E00035B1C90108959C0140E050E064E0220F61
:1000F000331F441F551F6A95D1F760E074E284EF07
:1001000090E03AD0C901DA010197A109B109292F7C
:100110003A2F4B2F55270196A11DB11D20BD8150AF
:1001200089B986E880BD88E18AB908955D9BFECFD4
:100130008CB908955F9BFECF8CB10895FC0104C07B
:100140005D9BFECF8CB9319680818823C9F70895D5
:10015000AA1BBB1B51E107C0AA1FBB1FA617B707ED
:1001600010F0A61BB70B881F991F5A95A9F7809509
:100170009095BC01CD010895A1E21A2EAA1BBB1BCC
:10018000FD010DC0AA1FBB1FEE1FFF1FA217B30763
:10019000E407F50720F0A21BB30BE40BF50B661F79
:1001A000771F881F991F1A9469F76095709580953D
:1001B00090959B01AC01BD01CF010895FB019F010A
:1001C000E8944230BCF04532ACF44A3029F497FB55
:1001D0001EF4909581959F4F642F7727B9DF805D3E
:1001E0008A330CF0895D8193CB010097A9F716F44F
:1001F0005DE251931082C90100C0DC01FC01672F50
:1002000071917723E1F7329704C07C916D937083ED
:0E0210006291AE17BF07C8F30895F894FFCFB0
:0A021E00476961207472693A00001C
:00000001FF
