:1000000012C024C023C022C021C020C01FC01EC0F7
:100010001DC01CC01BC01AC019C018C017C016C014
:1000200015C014C013C011241FBECFE5D4E0DEBF3D
:10003000CDBF10E0A0E6B0E0E2E8F0E002C005903D
:100040000D92A437B107D9F702D019C0D9CF14D077
:1000500020E030E044EC59E0F901E05AFF4F8081A4
:1000600082BBCA010197F1F72F5F3F4F2431310561
:100070009CF320E030E0F0CF8FEF81BB0895F8943F
:02008000FFCFB0
:100082007FA6CAE6F8FEF8E6CAA67F58341806002C
:0400920006183458C0
:00000001FF
