:1000000012C019C018C017C016C015C014C013C044
:1000100012C011C010C00FC00EC00DC00CC00BC06C
:100020000AC009C008C011241FBECFE5D4E0DEBF5E
:10003000CDBF02D00EC1E4CF0AD00AD080E00BD0F1
:1000400086E527D082E007D088E923D0FFCF089546
:1000500088E480B90895982F16BE84EA86BF06B654
:1000600007FEFDCF81B1887F883011F081E00895CF
:1000700093B984E886BF06B607FEFDCF91B1987F9D
:10008000983111F480E0089580E0903409F081E027
:10009000089583B984E886BF06B607FEFDCF81B117
:1000A00090E0887F883209F091E0892F089584ECF0
:1000B00086BF06B607FEFDCF83B1089584E886BFEC
:1000C00006B607FEFDCF83B10895EF92FF920F931E
:1000D0001F93CF93DF937B018A01BDDF882391F4C7
:1000E000C0E0D0E008C0F701EC0FFD1F8081D1DF38
:1000F000882341F42196C017D107A8F384E986BF6D
:1001000080E001C081E0DF91CF911F910F91FF90BE
:10011000EF9008950F931F93CF93DF93EB018A0124
:10012000816099DF882311F081E022C020E030E077
:10013000A8014150504094EC0BC096BF06B607FE94
:10014000FDCF83B1FE01E20FF31F80832F5F3F4F8E
:100150002417350790F384E886BF06B607FEFDCF67
:1001600083B1C00FD11F2197888384E986BF80E0C7
:10017000DF91CF911F910F910895CF92DF92EF926F
:10018000FF921F93CF93DF93162F6A01790163DFEC
:100190008823A1F4812F7DDFC0E0D0E008C0F60104
:1001A000EC0FFD1F808175DF882341F42196CE1569
:1001B000DF05A8F384E986BF80E001C081E0DF911C
:1001C000CF911F91FF90EF90DF90CF900895EF9225
:1001D000FF920F931F93CF93DF93182F062FEA01FF
:1001E000790139DF882351F5802F53DF812F81601A
:1001F00032DF882319F520E030E0A701415050405C
:1002000094EC0BC096BF06B607FEFDCF83B1FE018E
:10021000E20FF31F80832F5F3F4F2417350790F3C2
:1002200084E886BF06B607FEFDCF83B1CE0DDF1D85
:100230002197888384E986BF80E001C081E0DF9157
:10024000CF911F910F91FF90EF90089584E986BFA1
:060250000895F894FFCFB1
:00000001FF
