:1000000012C019C018C017C016C015C014C013C044
:1000100012C011C010C00FC00EC00DC00CC00BC06C
:100020000AC009C008C011241FBECFE5D4E0DEBF5E
:10003000CDBF02D03DC0E4CFCF93DF931AD0C0E054
:10004000D0E0CE016C2F26D02196CA30D105C9F759
:1000500087E090E062E11ED089E090E069E01AD08C
:1000600082E090E06FE016D081E090E061E012D095
:10007000FFCF0895E199FECF9FBB8EBB6DBB84E09F
:100080008CBBE19A0895E199FECF9FBB8EBBE09AAD
:100090008DB308959C01E199FECFE199FECF3FBB5E
:1000A0002EBBE09A8DB3861711F0C901E3DF0895E6
:0400B000F894FFCFF2
:00000001FF
