:1000000012C04CC067C017C016C015C014C013C0C2
:1000100012C011C010C00FC00EC00DC00CC00BC06C
:100020000AC009C008C011241FBECFE5D4E0DEBF5E
:10003000CDBF02D06BC0E4CF0BD022D080E49CE9CE
:1000400010D080ED97E016D088EB9BE016D0FFCF64
:10005000B99AC198BA9AC2988A98929A8B98939AA8
:1000600008952FB5226A2FBD2EB52A612EBD97BDEA
:1000700086BD08959BBD8ABD089599BD88BD08952C
:100080008BB780688BBF85B7886085BF8BB780646E
:100090008BBF85B7826085BF789408951F920F92B9
:1000A0000FB60F9211242F938F939F938AB59BB510
:1000B000805D974019F488EB9BE002C080ED97E0EB
:1000C0009BBD8ABD9F918F912F910F900FBE0F9076
:1000D0001F9018951F920F920FB60F9211242F9315
:1000E0008F939F9388B599B5885B9B4019F480EDF9
:1000F00097E002C088EB9BE099BD88BD9F918F91EE
:100100002F910F900FBE0F901F901895F894FFCF6E
:00000001FF
