:1000000012C019C018C017C016C015C014C013C044
:1000100012C01FC010C00FC00EC00DC00CC00BC05E
:100020000AC009C008C011241FBECFE5D4E0DEBF5E
:10003000CDBF02D025C0E4CF20D001D0FFCF83B701
:10004000826083BF82E882BF89B7816089BF78946C
:1000500008951F920F920FB60F9211248F939F93C2
:1000600082E882BF88B391E0892788BB9F918F91F6
:100070000F900FBE0F901F901895B89AC0980895D2
:04008000F894FFCF22
:00000001FF
