:1000000012C021C020C01FC01EC01DC01CC01BC00C
:100010001AC019C018C017C016C015C014C013C02C
:1000200012C011C010C011241FBECFE5D4E0DEBF46
:10003000CDBF10E0A0E6B0E001C01D92A136B1072F
:10004000E1F702D070C0DCCFCF93DF9312D080E015
:100050009BE412D0C9E1D0E036D08093600028E85C
:1000600033E1FE013197F1F721503040D1F727D02D
:10007000F3CF889A8A9A08959C0140E050E064E0AA
:10008000220F331F441F551F6A95D1F760E074E2B9
:1000900084EF90E026D0C901DA010197A109B109E6
:1000A000292F3A2F4B2F55270196A11DB11D20BD99
:1000B000815089B986E880BD88E18AB908955D9B41
:1000C000FECF8CB908955F9BFECF8CB10895FC01E3
:1000D00004C05D9BFECF8CB9319680818823C9F71F
:1000E0000895A1E21A2EAA1BBB1BFD010DC0AA1F79
:1000F000BB1FEE1FFF1FA217B307E407F50720F091
:10010000A21BB30BE40BF50B661F771F881F991F0B
:100110001A9469F760957095809590959B01AC0154
:0A012000BD01CF010895F894FFCF50
:00000001FF
