:1000000012C024C023C022C021C020C01FC01EC0F7
:100010001DC01CC01BC01AC019C018C017C016C014
:1000200015C014C013C011241FBECFE5D4E0DEBF3D
:10003000CDBF10E0A0E6B0E0E0E8F1E002C005903E
:100040000D92AC37B107D9F702D098C0D9CF0BD0F9
:100050004BD08BD080E690E065D080EC05D080E777
:1000600090E060D0FFCF089592B3282F207F9F703B
:10007000292B22BB9098919A26E0922F9A95F1F71E
:100080009198E8EEF3E03197F1F792B38295807F93
:100090009F70982B92BB919A2A95F1F7919880E1E5
:1000A00097E20197F1F7089592B3282F207F9F7070
:1000B000292B22BB909A919A26E0922F9A95F1F7DC
:1000C0009198E8EEF3E03197F1F792B38295807F53
:1000D0009F70982B92BB919A2A95F1F7919880E1A5
:1000E00097E20197F1F708958FEF81BB80EA9FE0D7
:1000F00029E130E0F9013197F1F70197D9F783E36E
:10010000B3DF82E3B1DF88E2AFDF8CE0ADDF86E012
:10011000ABDF81E0A9DF80E197E20197F1F780E8AA
:10012000A3DF0895CF93DF93EC0101C0BDDF899178
:100130008823E1F7DF91CF910895CF93DF93EA0110
:10014000882331F4603164F46F70862F806807C0B3
:10015000813031F4603124F46F70862F806C84DF3D
:10016000CE01E0DFDF91CF91089581E07DDF80E176
:1001700097E20197F1F780E877DF0895F894FFCFD1
:100180006868686868686868686868686868680057
:0C01900048656C6C6F20576F726C640047
:00000001FF
