:1000000012C021C020C01FC01EC01DC02EC01BC0FA
:100010001AC019C018C017C016C015C014C013C02C
:1000200012C011C010C011241FBECFE5D4E0DEBF46
:10003000CDBF10E0A0E6B0E001C01D92A136B1072F
:10004000E1F702D043C0DCCF3DD001D0FFCF8EB569
:100050008E608EBD1DBC1CBC84E090E09BBD8ABD43
:1000600089B7806189BF7894FFCF1F920F920FB636
:100070000F9211242F933F938F939F93EF93FF93AE
:10008000809160008F5F809360008091600088BBEA
:10009000809160008A3011F41092600088EE93E045
:1000A00020E931E0F9013197F1F70197D9F7FF9194
:1000B000EF919F918F913F912F910F900FBE0F90D5
:1000C0001F9018958FEF87BB18BA0895F894FFCF4B
:00000001FF
